{
  "contractName": "Ballot",
  "abi": [
    {
      "inputs": [
        {
          "internalType": "uint256",
          "name": "numProposals",
          "type": "uint256"
        }
      ],
      "stateMutability": "nonpayable",
      "type": "constructor"
    },
    {
      "inputs": [
        {
          "internalType": "address",
          "name": "voter",
          "type": "address"
        }
      ],
      "name": "register",
      "outputs": [],
      "stateMutability": "nonpayable",
      "type": "function"
    },
    {
      "inputs": [
        {
          "internalType": "uint256",
          "name": "toProposal",
          "type": "uint256"
        }
      ],
      "name": "vote",
      "outputs": [],
      "stateMutability": "nonpayable",
      "type": "function"
    },
    {
      "inputs": [],
      "name": "reqWinner",
      "outputs": [
        {
          "internalType": "uint256",
          "name": "winningProposal",
          "type": "uint256"
        }
      ],
      "stateMutability": "view",
      "type": "function"
    }
  ],
  "bytecode": "0x608060405234801561001057600080fd5b5060405161097038038061097083398181016040528101906100329190610186565b336000806101000a81548173ffffffffffffffffffffffffffffffffffffffff021916908373ffffffffffffffffffffffffffffffffffffffff1602179055506002600160008060009054906101000a900473ffffffffffffffffffffffffffffffffffffffff1673ffffffffffffffffffffffffffffffffffffffff1673ffffffffffffffffffffffffffffffffffffffff1681526020019081526020016000206000018190555060005b8181101561013c57600260405180602001604052806000815250908060018154018082558091505060019003906000526020600020016000909190919091506000820151816000015550508080610134906101e2565b9150506100de565b5060026003819055505061022b565b600080fd5b6000819050919050565b61016381610150565b811461016e57600080fd5b50565b6000815190506101808161015a565b92915050565b60006020828403121561019c5761019b61014b565b5b60006101aa84828501610171565b91505092915050565b7f4e487b7100000000000000000000000000000000000000000000000000000000600052601160045260246000fd5b60006101ed82610150565b91507fffffffffffffffffffffffffffffffffffffffffffffffffffffffffffffffff8214156102205761021f6101b3565b5b600182019050919050565b6107368061023a6000396000f3fe608060405234801561001057600080fd5b50600436106100415760003560e01c80630121b93f146100465780634420e48614610062578063508b30c91461007e575b600080fd5b610060600480360381019061005b9190610415565b61009c565b005b61007c600480360381019061007791906104a0565b61021f565b005b61008661033b565b60405161009391906104dc565b60405180910390f35b6000600160003373ffffffffffffffffffffffffffffffffffffffff1673ffffffffffffffffffffffffffffffffffffffff1681526020019081526020016000206000015411610121576040517f08c379a000000000000000000000000000000000000000000000000000000000815260040161011890610554565b60405180910390fd5b6000600160003373ffffffffffffffffffffffffffffffffffffffff1673ffffffffffffffffffffffffffffffffffffffff168152602001908152602001600020604051806060016040529081600082015481526020016001820160009054906101000a900460ff1615151515815260200160028201548152505090506000151581602001511515146101b357600080fd5b60028054905082106101c457600080fd5b6001816020019015159081151581525050818160400181815250508060000151600283815481106101f8576101f7610574565b5b90600052602060002001600001600082825461021491906105d2565b925050819055505050565b60008054906101000a900473ffffffffffffffffffffffffffffffffffffffff1673ffffffffffffffffffffffffffffffffffffffff163373ffffffffffffffffffffffffffffffffffffffff161461027757600080fd5b60001515600160008373ffffffffffffffffffffffffffffffffffffffff1673ffffffffffffffffffffffffffffffffffffffff16815260200190815260200160002060010160009054906101000a900460ff161515146102d757600080fd5b60018060008373ffffffffffffffffffffffffffffffffffffffff1673ffffffffffffffffffffffffffffffffffffffff1681526020019081526020016000206000018190555060016003600082825461033191906105d2565b9250508190555050565b6000806000905060005b6002805490508110156103b657816002828154811061036757610366610574565b5b906000526020600020016000015411156103a3576002818154811061038f5761038e610574565b5b906000526020600020016000015491508092505b80806103ae90610628565b915050610345565b5060026003546103c691906106a0565b8110156103d6576103d56106d1565b5b5090565b600080fd5b6000819050919050565b6103f2816103df565b81146103fd57600080fd5b50565b60008135905061040f816103e9565b92915050565b60006020828403121561042b5761042a6103da565b5b600061043984828501610400565b91505092915050565b600073ffffffffffffffffffffffffffffffffffffffff82169050919050565b600061046d82610442565b9050919050565b61047d81610462565b811461048857600080fd5b50565b60008135905061049a81610474565b92915050565b6000602082840312156104b6576104b56103da565b5b60006104c48482850161048b565b91505092915050565b6104d6816103df565b82525050565b60006020820190506104f160008301846104cd565b92915050565b600082825260208201905092915050565b7f4e6f742061205265676973746572656420566f74657200000000000000000000600082015250565b600061053e6016836104f7565b915061054982610508565b602082019050919050565b6000602082019050818103600083015261056d81610531565b9050919050565b7f4e487b7100000000000000000000000000000000000000000000000000000000600052603260045260246000fd5b7f4e487b7100000000000000000000000000000000000000000000000000000000600052601160045260246000fd5b60006105dd826103df565b91506105e8836103df565b9250827fffffffffffffffffffffffffffffffffffffffffffffffffffffffffffffffff0382111561061d5761061c6105a3565b5b828201905092915050565b6000610633826103df565b91507fffffffffffffffffffffffffffffffffffffffffffffffffffffffffffffffff821415610666576106656105a3565b5b600182019050919050565b7f4e487b7100000000000000000000000000000000000000000000000000000000600052601260045260246000fd5b60006106ab826103df565b91506106b6836103df565b9250826106c6576106c5610671565b5b828204905092915050565b7f4e487b7100000000000000000000000000000000000000000000000000000000600052600160045260246000fdfea2646970667358221220e78c6ef468574f14e8a7d29ebf81df7ad78f1aebd9a37aacfa88fcd4e6106c5864736f6c634300080a0033",
  "immutableReferences": {},
  "source": "pragma solidity >=0.4.22 <0.9.0;\r\n\r\ncontract Ballot{\r\n\r\n    struct Voter {\r\n        uint weight;\r\n        bool voted;\r\n        uint vote;\r\n    }\r\n\r\n    struct Proposal {\r\n        uint voteCount;\r\n    }\r\n\r\n    address chairperson;\r\n    mapping(address => Voter) voters;\r\n    Proposal[] proposals;\r\n\r\n    uint totalWeights;\r\n\r\n    modifier onlyChair() {\r\n        require(msg.sender == chairperson);\r\n        _;\r\n    }\r\n\r\n    modifier validVoter() {\r\n        require(voters[msg.sender].weight > 0, \"Not a Registered Voter\");\r\n        _;\r\n    }\r\n\r\n    // constructor : contract     \r\n    constructor (uint numProposals) public {\r\n        chairperson = msg.sender;\r\n        voters[chairperson].weight = 2; //   2 \r\n\r\n        for(uint prop = 0; prop < numProposals; prop++){\r\n            proposals.push(Proposal(0));\r\n        }\r\n\r\n        totalWeights = 2; //   2\r\n    }\r\n\r\n    function register(address voter) public onlyChair {\r\n        // if(msg.sender != chairperson || voters[voter].voted == true) revert();\r\n        require (voters[voter].voted == false);\r\n        voters[voter].weight = 1;\r\n        // voters[voter].voted = false; // require .\r\n\r\n        totalWeights += 1; //  \r\n    }\r\n\r\n    function vote(uint toProposal) public validVoter {\r\n        Voter memory sender = voters[msg.sender]; // struct   storage type,       memory \r\n        // if(sender.voted == true || toProposal >= proposals.length) revert();\r\n        require (sender.voted == false);\r\n        require (toProposal < proposals.length);\r\n        sender.voted = true;\r\n        sender.vote = toProposal;\r\n        proposals[toProposal].voteCount += sender.weight;\r\n    }\r\n\r\n    function reqWinner() public view returns (uint winningProposal) {\r\n        uint winningVoteCount = 0;\r\n        for(uint prop = 0; prop < proposals.length; prop++){\r\n            if(proposals[prop].voteCount > winningVoteCount){\r\n                winningVoteCount = proposals[prop].voteCount;\r\n                winningProposal = prop;\r\n            }\r\n        }\r\n\r\n        assert(winningVoteCount >= (totalWeights / 2)); //   \r\n    }\r\n}",
  "sourcePath": "C:\\Users\\ghqls\\Desktop\\Dapp-test\\Ballot\\contract\\contracts\\Ballot.sol",
  "compiler": {
    "name": "solc",
    "version": "0.8.10+commit.fc410830.Emscripten.clang"
  },
  "schemaVersion": "3.4.4",
  "updatedAt": "2022-01-03T14:04:54.971Z",
  "devdoc": {
    "kind": "dev",
    "methods": {},
    "version": 1
  },
  "userdoc": {
    "kind": "user",
    "methods": {},
    "version": 1
  }
}